:020000020000FC
:100130007894A8959BD07DD0FBCF0FEF0DBF08E042
:100140000EBFE0E0F1E000270193F830E9F7EF3F60
:10015000D9F7EE27FF270024112422243324442436
:1001600055246624772488249924AA24BB24CC24EB
:10017000DD24EE24FF2400271127222733274427DC
:1001800055276627772788279927AA27BB27CC27B3
:10019000DD2710E81093C100549A559A569A209181
:1001A0007000216020937000222722E02093B1008C
:1001B0007894E4E7F1E01FEF1193BACF0091C60005
:1001C00018950F930FB70F931F932F933F930091A1
:1001D00064011091650120916601309167010F5F04
:1001E0001F5F2F5F3F5F00936401109365012093B1
:1001F0006601309367011F3F81F44F5F50E16BB19F
:100200005623503129F4403141F4442714E04FD0B3
:10021000403F19F4442712E04AD03F912F911F919B
:100220000F910FBF0F91189519011C0121012A018F
:100230002C0100000000089515E01A950000E9F770
:1002400008951F932F931BB120E112271BB92F9103
:100250001F9108955F9A089500001F932F931BB17B
:1002600020E112271BB92F911F910895E4E7F1E0D7
:1002700010811F3FD9F0FF27110FE12FE85DFD4FDF
:10028000C895102D0190C895E12FF02DEF93FF93A5
:100290000AE0E4E7F1E0F894118111930A95E1F79F
:1002A0001FEF11937894FF91EF9109940895EF93C4
:1002B000FF930F932FB72F93E4E7F1E00BE0F8944F
:1002C00021912F3F19F00A9521F0FACF2F3F20837B
:0E02D00012932F912FBF0F91FF91EF91089580
:020000009CC0A2
:0200040018954D
:02000800189549
:02000C00189545
:02001000189541
:0200140018953D
:02001800189539
:02001C00189535
:02002000189531
:02002400CEC04C
:02002800189529
:02002C00189525
:02003000189521
:0200340018951D
:02003800189519
:02003C00189515
:02004000C0C03E
:0200440018950D
:02004800B9C03D
:02004C00189505
:02005000189501
:020054001895FD
:020058001895F9
:02005C001895F5
:020060001895F1
:020064001895ED
:00000001FF
